:04000000D0EF05F048
:1000080000C017F001C016F002C015F017C000F0CC
:0A00180016C001F015C002F011003F
:0C002200060E0D6E0D2EFED70000120021
:06002E00000000001200BA
:0A003400F6DF8282F4DF82921200F0
:10003E007F0E0001A615006E00C0A6F0849482907B
:10004E00BF0E001600C0A6F0008C00C0A6F000C0C7
:06005E0083FFE9DF120040
:1000640084948290B80E0001A611836EE1DF120021
:100074007F0E0001A615016E01C0A6F001AC03D0ED
:0C0084008480849202D084908482120058
:0E009000829284848290A6C083FFCCDF12008F
:10009E00FF0E956EC5DFC4DF8484829282808282D9
:1000AE00B9DF83CFA6F082928290BADFB9DF956A6C
:0600BE00A6C000F01200D4
:1000C400000E0001A05D0AE3A0517F0807E3000EC3
:1000D400A15D04E3A1513F0801E301D04AD0A0C0CF
:1000E400A6F0C6DFA1C0A6F0A633A69FA633A69F9E
:1000F400A633A69FB5DFA0C0A6F09FDFCEDF00C069
:10010400A5F0CBDF00C0A5F0A1C0A6F0A633A69F42
:10011400A633A69FA633A69FA3DFA0C0A6F08DDFBB
:10012400070EA115006E00C0A3F000C001F0010E7F
:10013400006E015004E000360090FF0FFBD700C0B2
:10014400A3F0001CA46F09D0A451A5170FD0A3518C
:10015400A5130CD0A351A51B09D0A251000AF4E0A9
:10016400A251010AF4E0A251020AF4E0A5C0A6F0EB
:040174008DDF120009
:100178000B6A0A6A096A00500402F4CF09F0F3CF47
:1001880008F001500502F4CF0BF0F3CF0AF000504D
:100198000502F3500926F4500A22E86A0B2201509E
:1001A8000402F3500926F4500A22E86A0B2208C018
:1001B80000F009C001F00AC002F00BC003F0120001
:1001C800000E0001985D04E398513F0801E301D057
:1001D80027D0000E965DD8A0966B96517F0802E254
:1001E8007F0E966F000E975DD8A0976B97517F088A
:1001F80002E27F0E976F9651975D06E296C09AF0DD
:1002080097C096F09AC097F09651975D09E396C00B
:10021800A0F098C0A1F099C0A2F050DF962BF4D7B7
:020228001200C2
:10022A0000019851070801E282D08351965D006E61
:10023A0084C001F0000E01567BC004F0000E056E6A
:10024A0096DF00C09EF001C09FF097C0A6F0F2DED4
:10025A0098C0A6F002DF9A6B7B509A5D49E29751EB
:10026A007F0801E264D097C0A6F0FFDE98C0A6F02E
:10027A00F4DE97C0A6F0DEDE0DDF00C09BF00ADFD9
:10028A0000C09BF097C0A6F0F0DE98C0A6F0E5DEAD
:10029A0097C0A6F0CFDE9E517C24F66E9F517D203A
:1002AA00F76E000E9FBFFF0E7E20F86E0900F5CF95
:1002BA0000F000C09CF09E4B9F2B001C9D6F09D044
:1002CA009DC09BF00FD09CC09BF00CD09C519B1BF7
:1002DA0009D09951000AF4E09951010AF4E09951C0
:1002EA00020AF4E09BC0A6F0CEDE972B9A2BB4D775
:1002FA0097C0A6F0BADE98C0A6F0AFDE97C0A6F007
:10030A0099DEFF0E9C6F9D6B0CD09CC09BF09CC02D
:10031A00A6F0B9DE0CD09DC09BF09DC0A6F0B3DE5E
:10032A0006D09951000AF1E09951010AF4E012004D
:10033A000001956B7F50000A0EE1050E7B6E070ED9
:10034A007A6EF20E7C6E0B0E7D6E000E7E6E200EA5
:10035A00836F000E846F95519025E96E000E9121EE
:10036A00EA6EEE5216E095519025E96E000E912143
:10037A00EA6EEECF96F092C097F093C098F094C0D0
:10038A0099F04EDF7B50010F006E00509227952B9B
:04039A00E2D7120094
:10039E00086A096A100E0C6E0134083609360450CC
:1003AE00085E0550D8A0053C095ED8B007D00450B1
:1003BE0008260550D8B0053C0926D89000360136DF
:0603CE000C2EEAD712001C
:1003D40091C095F000019551935D0BE390C096F0A8
:1003E40092C097F095C098F094C099F0EBDE952BED
:0403F400F1D712002B
:1003F8007F6A0001816B826B949494929694949096
:10040800969096928294956A84948290849084823D
:1004180082843F0E836E0ADEC00E836E07DE848000
:1004280084923F0E836E02DEC00E836EFFDD1200E3
:100438008490848200018B6B8B5107080EE38BC07C
:10044800A6F00CDE8A6B8A513F0805E380C0A6F04F
:100458001BDE8A2BF8D78B2BEFD7849284808B6B8B
:100468008B5107080EE38BC0A6F0F8DD8A6B8A5122
:100478003F0805E380C0A6F007DE8A2BF8D78B2B50
:04048800EFD7120098
:10048C00000E00018C5D04E38C517F0801E301D068
:10049C0027D0000E8A5DD8A08A6B8A513F0802E2F1
:1004AC003F0E8A6F000E8B5DD8A08B6B8B513F0873
:1004BC0002E23F0E8B6F8A518B5D06E28AC080F0A0
:1004CC008BC08AF080C08BF08A518B5D09E38CC0A5
:1004DC00A0F08AC0A1F08DC0A2F0EEDD8A2BF4D77B
:0204EC001200FC
:1004EE00000E6C5C02E10A0E6B5C02E2828A01D0A5
:1004FE00829A000E006E6C50005C02E16B50020896
:10050E0021E2000E6C5C02E10A0E6B5C1BE23950BC
:10051E00010A18E0010E0001906F2D0E916F260E4C
:10052E00926F3F0E936F946B4EDF1E0E906F320ED6
:10053E00916F260E926F370E936F010E946F43DFFD
:10054E00010E396E000E006E6C50005C02E16B50B5
:10055E000A0821E2000E6C5C02E1140E6B5C1BE2D9
:10056E003950020A18E00001010E906F2D0E916FA6
:10057E00260E926F3F0E936F946B25DF140E906FC5
:10058E00320E916F1E0E926F370E936F010E946F97
:10059E001ADF020E396E000E006E6C50005C02E126
:1005AE006B50140821E2000E6C5C02E11E0E6B5CB7
:1005BE001BE23950030A18E00001010E906F2D0E58
:1005CE00916F260E926F3F0E936F946BFCDE0A0EA8
:1005DE00906F320E916F140E926F370E936F010E55
:1005EE00946FF1DE030E396E000E006E6C50005CDF
:1005FE0002E16B501E0821E2000E6C5C02E1280E37
:10060E006B5C1BE23950040A18E00001010E906F7A
:10061E002D0E916F260E926F3F0E936F946BD3DE5D
:10062E00020E906F320E916F0A0E926F370E936F0D
:10063E00010E946FC8DE040E396E000E006E6C5003
:10064E00005C02E16B5028082BE2000E6C5C02E1AC
:10065E00320E6B5C25E23950050A22E00001010ED4
:10066E00906F2D0E916F260E926F3F0E936F946BBF
:10067E00AADE400E906F2D0E916F7F0E926F3F0E81
:10068E00936F946BA0DE780E906F320E916F7F0E8B
:10069E00926F370E936F010E946F95DE050E396EC5
:1006AE00000E006E6C50005C02E16B5032082BE2C3
:1006BE00000E6C5C02E13C0E6B5C25E23950060AC2
:1006CE0022E00001010E906F2D0E916F260E926F9B
:1006DE003F0E936F946B77DE400E906F2D0E916FE1
:1006EE007F0E926F3F0E936F946B6DDE6E0E906F5A
:1006FE00320E916F780E926F370E936F010E946FCC
:10070E0062DE060E396E000E006E6C50005C02E169
:10071E006B503C082BE2000E6C5C02E1460E6B5CEB
:10072E0025E23950070A22E00001010E906F2D0ECE
:10073E00916F260E926F3F0E936F946B44DE400EB8
:10074E00906F2D0E916F7F0E926F3F0E936F946B85
:10075E003ADE640E906F320E916F6E0E926F370E00
:10076E00936F010E946F2FDE070E396E000E006E22
:10077E006C50005C02E16B5046082BE2000E6C5C84
:10078E0002E1500E6B5C25E23950080A22E00001AE
:10079E00010E906F2D0E916F260E926F3F0E936F7E
:1007AE00946B11DE400E906F2D0E916F7F0E926F37
:1007BE003F0E936F946B07DE5A0E906F320E916F51
:1007CE00640E926F370E936F010E946FFCDD080E60
:1007DE00396E000E006E6C50005C02E16B505008DA
:1007EE002BE2000E6C5C02E15A0E6B5C25E2395076
:1007FE00090A22E00001010E906F2D0E916F260E58
:10080E00926F3F0E936F946BDEDD400E906F2D0E48
:10081E00916F7F0E926F3F0E936F946BD4DD500EDF
:10082E00906F320E916F5A0E926F370E936F010EBC
:10083E00946FC9DD090E396E000E006E6C50005CAF
:10084E0002E16B505A082BE2000E6C5C02E1640E62
:10085E006B5C25E239500A0A22E00001010E906F0E
:10086E002D0E916F260E926F3F0E936F946BABDD34
:10087E00400E906F2D0E916F7F0E926F3F0E936F05
:10088E00946BA1DD460E906F320E916F500E926FEB
:10089E00370E936F010E946F96DD0A0E396E000EB1
:1008AE00006E6C50005C02E16B50640825E239501A
:1008BE000B0A22E00001010E906F2D0E916F260E95
:1008CE00926F3F0E936F946B7EDD400E906F2D0EE8
:1008DE00916F7F0E926F3F0E936F946B74DD2C0EA3
:1008EE00906F000E916F400E926F030E936F010E7C
:0A08FE00946F1CDD0B0E396E120022
:1009080000018C6B8D6B8AC003F08BC004F08AC029
:1009180005F08BC006F003C0E9FF04C0EAFFEE5003
:10092800200A04E18C518D1101E110D0010E8C6F69
:10093800000E8D6F03C0E9FF04C0EAFF05C0E1FFA8
:1009480006C0E2FFEECFE6FF054A062A03C001F023
:1009580004C002F0034A042A01C0E9FF02C0EAFF0A
:10096800EE50000AD8E18AC000F08BC001F01200F6
:100978000001806B050E805D0AE280518C25E16ED6
:10098800000E8D21E26E200EE66E802BF3D780518B
:100998008C25E16E000E8D21E26EE66A800780519B
:1009A8008C258E6F000E8D218F6F0A0E046E000E3F
:1009B800056E8AC000F08BC001F0EDDC08C000F0C5
:1009C80009C001F0300E00268EC0E1FF8FC0E2FFA3
:1009D80000C0E6FF0A0E046E000E056E8AC000F025
:1009E8008BC001F0D8DC00C08AF001C08BF0000E8B
:1009F800011802E1000E001801E102D08007CFD7EC
:020A08001200DA
:100A0A000900F5CFE6FF0006FBE10106F9E1120055
:100A1A000F0EC16E929A938A94989686949A938EA0
:100A2A00819EE5DC806B03DD4E0E906F000E916FA8
:100A3A00926B020E936F010E946F7ADC82880B0E12
:100A4A000B6E260E0C6E5D0E0D6E0D2EFED70C2E45
:100A5A00FCD70B2EFAD700000000806BE8DC8298E6
:100A6A003A0E906F000E916F0A0E926F936B010E01
:100A7A00946F5EDCCD6AF290F286F28CF28E1200EE
:100A8A00CF6ACE6A8286060E0D6E0D2EFED7000044
:100A9A0082966DA058D06C506F1802E16E506B1898
:100AAA0052E06EC06BF06FC06CF078C08AF079C00B
:100ABA008BF0700E00018C6F000E8D6F58DF6EC0C8
:100ACA008AF06FC08BF0630E8C6F000E8D6F4FDF54
:100ADA00700E8A6F000E8B6F12DF630E8A6F000E24
:100AEA008B6F0DDF000E6F5C02E1020E6E5C29E374
:100AFA006F50010802E16E50900823E30001180EBE
:100B0A00906F000E916F410E926F020E936F010E5D
:100B1A00946F0EDC220E906F000E916F410E926F51
:100B2A00020E936F010E946F03DC630E906F000E3A
:100B3A00916F010E926F020E936F010E946F9DECEE
:080B4A0001F0D0DC6D901200F7
:100B520085C096F087C097F086C098F089C099F05A
:100B6200E4EC00F085C096F087C097F088C098F05A
:100B720089C099F0E4EC00F086C08AF088C08BF05E
:100B820085C08CF089C08DF080DC86C08AF088C078
:0E0B92008BF087C08CF089C08DF077DC1200EC
:100BA0000FEC07F03ADF560E906F000E916F410E7A
:100BB000926F020E936F010E946F9DEC01F0600E28
:100BC000906F000E916F340E926F020E936F010EB4
:100BD000946F9DEC01F0280E856F2D0E866F3F0EF1
:100BE000876F3F0E886F010E896FB3DF4EDFFED730
:020BF000FFD72D
:100E1E0010EE18F04B0E006E010E016ED20EF66E35
:0E0E2E000D0EF76E000EF86E05EC05F01200CA
:100BF200000000000000005F000000070007001472
:100C02007F147F14242A7F2A122313086462364930
:100C12005522500005030000001C22410000412221
:100C22001C00082A1C2A0808083E08080050300048
:100C320000080808080800303000002010080402EC
:100C42003E5149453E00427F4000426151494621A2
:100C520041454B311814127F1027454545393C4A0E
:100C6200494930017109050336494949360649495E
:100C7200291E0036360000005636000000081422F5
:100C820041141414141441221408000201510906DB
:100C9200324979413E7E1111117E7F494949363EE2
:100CA200414141227F4141221C7F494949417F09FB
:100CB2000901013E414151327F0808087F00417F0E
:100CC20041002040413F017F081422417F404040C3
:100CD200407F0204027F7F0408107F3E4141413E73
:100CE2007F090909063E4151215E7F0919294646BD
:100CF2004949493101017F01013F4040403F1F20E6
:100D020040201F7F2018207F631408146303047897
:100D12000403615149454300007F41410204081028
:100D22002041417F00000402010204404040404053
:100D3200000102040020545454787F484444383857
:100D420044444420384444487F3854545418087E5C
:100D5200090102081454543C7F0804047800447DBD
:100D620040002040443D00007F10284400417F4065
:100D7200007C041804787C0804047838444444381D
:100D82007C14141408081414187C7C080404084801
:100D920054545420043F4440203C4040207C1C20BA
:100DA20040201C3C4030403C44281028440C505009
:100DB200503C4464544C44000836410000007F001B
:100DC20000004136080008082A1C08081C2A0808E6
:0A0DD20020202020202020202000F7
:0A0DDC0044495354414E43453D0085
:0D0DE6006F7574206F662072616E67650086
:010DF30000FF
:100DF40044697374616E6365204D656173757269CE
:040E04006E672000F5
:080E080057454C434F4D4500D6
:0A0E100044495354414E43453D0050
:030E1A00434D0045
:020000040030CA
:0D000100021F1EFF8381FF0FC00FE00F40A4
:00000001FF
